:100000000C943E000C945B000C945B000C945B0021
:100010000C945B000C945B000C945B000C945B00F4
:100020000C945B000C945B000C945B000C945B00E4
:100030000C945B000C945B000C9455050C943D05EE
:100040000C945B000C945B000C945B000C945B00C4
:100050000C945B000C945B000C94E3010C94A701DE
:100060000C9481010C945B000C945B000C94870051
:100070000C945B000C945B000C945B0011241FBE7D
:10008000CFEFD8E0DEBFCDBF11E0A0E0B1E0E8E8FF
:10009000FBE002C005900D92A830B107D9F721E02E
:1000A000A8E0B1E001C01D92A434B207E1F70E94BC
:1000B00072020C94C2050C940000249A08952C98A6
:1000C00008952C9A089520912801E22FF0E0EE0F78
:1000D000FF1FE85FFE4F918380832F5F2031A1F0E7
:1000E00020932801E8E0F1E090E080E02191319157
:1000F000820F931F21E0E832F207C1F724E09695C2
:1001000087952A95E1F7089510922801EBCF1F9269
:100110000F920FB60F9211242F933F934F935F933B
:100120006F937F938F939F93AF93BF93CF93DF93FF
:10013000EF93FF93809100018130F1F420917800DA
:1001400090917900892F90E0982F8827820F911D38
:100150000E9463002EE0289FE001299FD00D11240A
:10016000C05BDA4FCC3D85E0D807D8F40E945F0031
:10017000D0932B01C0932A0110922901FF91EF9196
:10018000DF91CF91BF91AF919F918F917F916F91AF
:100190005F914F913F912F910F900FBE0F901F9045
:1001A00018950E946100E4CFCF93DF93EFE7F0E072
:1001B000808183608083EEE7F0E0808180668083C9
:1001C000EAE7F0E08081806880838081887F808397
:1001D000808182608083ACE7B0E08C918F778C93D4
:1001E0008C9180648C93CBE7D0E088818062888397
:1001F00088818F7B88838C91807E85608C938C91A5
:100200008F7D8C93888180688883808188608083DB
:10021000DF91CF91089590912901911120C091E033
:10022000909329018230E1F028F4882341F0813055
:1002300049F008958330C9F08430E1F008951092B8
:100240002901089590917C00907E956090937C00A8
:1002500090917A00906490937A00809300010895C1
:1002600090917C00907E9660F1CF90917C00907E82
:100270009960ECCF90917C00907E9860E7CF809160
:100280002A0190912B01089590932B0180932A01CC
:100290000895539808953B9A439A0895539A5B9A08
:1002A00008953B9A43980895539A5B98089586E081
:1002B00080936C0082E080936B00E8E6F0E0808140
:1002C00086608083089589B126B199B1880F8470C2
:1002D00096959270892B21FB992790F9892B11F023
:1002E000873051F490912E01973030F480912D0198
:1002F0009F5F90932E01089580932D0110922E01FF
:1003000008951F920F920FB60F9211242F933F93CF
:100310004F935F936F937F938F939F93AF93BF930D
:10032000EF93FF930E94CE020E942505FF91EF916B
:10033000BF91AF919F918F917F916F915F914F91FD
:100340003F912F910F900FBE0F901F9018951F9205
:100350000F920FB60F9211242F933F934F935F93F9
:100360006F937F938F939F93AF93BF93EF93FF937D
:100370000E94CE020E942505319B08C080912C016D
:10038000811102C00E94670581E001C080E0809376
:100390002C01FF91EF91BF91AF919F918F917F9130
:1003A0006F915F914F913F912F910F900FBE0F90E2
:1003B0001F90189588E080936A00E8E6F0E080815D
:1003C0008160808308951F920F920FB60F921124BF
:1003D0008F9382E0809302018F910F900FBE0F9058
:1003E0001F901895CF93C3B1C3FBCC27C0F9809160
:1003F00001018C1304C0CF9108950E945F000E94F8
:100400008005853F9140C8F70E94610082E0C111DC
:1004100081E00E94C40280E00E94D102C0930101E9
:10042000EACF0F931F93CF93DF930E948005EC01D7
:100430000E943F018C010E94A102813019F5C01B6E
:10044000D10BC13C8EEFD80744F00E945401DF91DC
:10045000CF911F910F910C945101C9318CEFD807A6
:1004600044F00E945401DF91CF911F910F910C94A1
:100470004B01C532DA4F1CF00E944E01E8CF0E94BA
:100480004E01F1CF0E944901E2CF809102018230FA
:10049000C9F481E00E940B010E94A40280912F0107
:1004A0009091300101969093300180932F01833E0B
:1004B0009440B8F081E080930201109230011092D4
:1004C0002F0108950E94F2010E94A102811107C02C
:1004D0000E943F018D3D954010F00E94B6020C94A1
:1004E000110208950E94C0030E94D4000E94AC0231
:1004F0000E9457010E945D000E9434050E944C0535
:100500000E94DA0186E089BD09B400FEFDCF0E9499
:10051000610078940E942E05813039F480E00E94B9
:1005200031050E9445020E94AB030E9480058C3D6C
:10053000954080F70E94A102813061F70E94BB02C2
:10054000E9CF8091310108951092310190E080E06F
:100550000E9444010C945F000E94A40290E080E09D
:100560000E94440190E080E00C94850581E0809336
:1005700031010C9461008FEB0E94D1020E94630153
:10058000682F8FEB0C941204813019F480930301CF
:10059000089582E0FBCF8091030108958091380196
:1005A00008958093380108950F931F93869F8001CB
:1005B000879F100D969F100D1124012E000C220B09
:1005C000330B4091390150913A0160913B01709198
:1005D0003C01040F151F261F371F0093390110938C
:1005E0003A0120933B0130933C014091040150912A
:1005F00005016091060170910701401751076207DC
:10060000730744F44093390150933A0160933B01DE
:1006100070933C0170956095509541955F4F6F4F79
:100620007F4F0091390110913A0120913B013091A7
:100630003C01041715072607370744F44093390196
:1006400050933A0160933B0170933C0123E030E00A
:10065000DC010E94AC050091390110913A01209112
:100660003B0130913C01060F171F281F391F37FD32
:1006700031C000933401109335012093360130933B
:1006800037018091340190913501A0913601B091EC
:1006900037012EE0B595A795979587952A95D1F7BF
:1006A00081589F4FAF4FBF4F8F379105A105B105BF
:1006B00024F48FE790E0A0E0B0E08F3F9105A10522
:1006C000B10529F024F08FEF90E0A0E0B0E01F9199
:1006D0000F91089510923401109235011092360155
:1006E00010923701CECF10923D0110923E01109230
:1006F0003F01109240011092390110923A0110927C
:100700003B0110923C0108950F931F93CF93DF9309
:100710008C010E943F018D3D954098F00E943F0161
:10072000EC010E948005B8019E01281B390BC9010C
:100730000E94D40280933801DF91CF911F910F91D5
:1007400008950E94730310923801DF91CF911F9199
:100750000F910C94A4028091320190913301019683
:1007600090933301809332018436910540F081E00B
:1007700090E00E9484031092330110923201089598
:1007800085B18C7385B94098589884B1836C84B9CD
:10079000389A509A8FE38093B6001092A10010927D
:1007A000A0001092A30081E08093A2001092A50007
:1007B0001092A4001092A7001092A6001092A90017
:1007C0008093A8001092AB001092AA001092AD0086
:1007D0001092AC001092AF008093AE001092B10066
:1007E0001092B0001092B3009EEF9093B20094E18B
:1007F0009093B50098ED9093B80028EF2093B9003E
:100800009093BA009FE09093BC001092BB0080933D
:10081000B700089585B18C7385B9409858981092A7
:10082000B6000895CF93DF93D82FC62F0E94A10260
:1008300081112AC00E940A041092A1001092A00007
:100840001092A30081E08093A2001092A500109264
:10085000A4001092A7001092A6001092A900809305
:10086000A8001092AB001092AA001092AD00109256
:10087000AC001092AF008093AE001092B1001092C5
:10088000B000DF91CF9108958FE38093B6000E946E
:10089000CB02813011F4C095C77084E38093B5001A
:1008A000C33009F478C040F4C13039F1C23009F4E2
:1008B0004CC00E940A0445C0C53009F4ACC008F41D
:1008C0008CC0C630B1F71092A1001092A000109217
:1008D000A30081E08093A2001092A500D093A40011
:1008E0001092A7001092A6001092A9008093A80071
:1008F0001092AB001092AA0089C01092A100D09370
:10090000A0001092A300C093A2001092A500109224
:10091000A4001092A7001092A6001092A900C09304
:10092000A8001092AB001092AA001092AD00109295
:10093000AC001092AF00C093AE001092B100D09303
:10094000B00084E18093B5009CCF1092A10010927A
:10095000A0001092A30081E08093A2001092A50055
:10096000D093A4001092A700D093A6001092A900E3
:100970008093A8001092AB001092AA001092AD00D4
:100980001092AC001092AF008093AE001092B100B4
:100990001092B000D6CF1092A1001092A000109239
:1009A000A30081E08093A2001092A5001092A40001
:1009B0001092A700D093A6001092A9008093A800DF
:1009C0001092AB001092AA001092AD001092AC00F1
:1009D0001092AF008093AE00B0CF1092A1001092A1
:1009E000A0001092A30081E08093A2001092A500C5
:1009F0001092A4001092A7001092A6001092A900D5
:100A00008093A8001092AB00D093AA001092AD0082
:100A1000D093AC00B7CF1092A100D093A000109259
:100A2000A30081E08093A2001092A5001092A40080
:100A30001092A7001092A6001092A9008093A8001F
:100A40001092AB00D093AA0099CFCF93C82F0E94E9
:100A50006301682F8C2FCF910C9412048091430175
:100A6000089580934301089582E084BD93E095BD8D
:100A700097E097BD80936E0008951F920F920FB676
:100A80000F9211248F9381E0809343018F910F90F7
:100A90000FBE0F901F9018951092800083E08093F6
:100AA000810081E080936F0008951F920F920FB62E
:100AB0000F9211241092850010928400109242012E
:100AC000109241010F900FBE0F901F901895CF9379
:100AD000DF93E4E8F0E0C081D181118210829E01B1
:100AE00050E040E060EE70E782E790E00E948A0507
:100AF0003093420120934101CE01DF91CF910895BF
:100B00008091410190914201089590934201809318
:100B100041010895A1E21A2EAA1BBB1BFD010DC0C5
:100B2000AA1FBB1FEE1FFF1FA217B307E407F5079D
:100B300020F0A21BB30BE40BF50B661F771F881F79
:100B4000991F1A9469F760957095809590959B010F
:100B5000AC01BD01CF0108950E94B305B7FF089510
:100B6000821B930B0895A29FB001B39FC001A39F66
:100B7000700D811D1124911DB29F700D811D1124D6
:080B8000911D0895F894FFCFC8
:080B88000102020200C03F005F
:02000004008278
:03000000FFD7FF28
:00000001FF
